{
    "abi": [
        {
            "type": "constructor",
            "inputs": [
                {
                    "name": "reclaimVerifier",
                    "type": "address",
                    "internalType": "address"
                }
            ],
            "stateMutability": "nonpayable"
        },
        {
            "type": "function",
            "name": "airdrop",
            "inputs": [
                {
                    "name": "claimPeriodId",
                    "type": "uint256",
                    "internalType": "uint256"
                },
                {
                    "name": "amount",
                    "type": "uint256",
                    "internalType": "uint256"
                }
            ],
            "outputs": [],
            "stateMutability": "nonpayable"
        },
        {
            "type": "function",
            "name": "channelClaimPeriods",
            "inputs": [
                {
                    "name": "",
                    "type": "string",
                    "internalType": "string"
                },
                {
                    "name": "",
                    "type": "uint256",
                    "internalType": "uint256"
                }
            ],
            "outputs": [
                {
                    "name": "",
                    "type": "uint256",
                    "internalType": "uint256"
                }
            ],
            "stateMutability": "view"
        },
        {
            "type": "function",
            "name": "claimPeriods",
            "inputs": [
                {
                    "name": "",
                    "type": "uint256",
                    "internalType": "uint256"
                }
            ],
            "outputs": [
                {
                    "name": "channelId",
                    "type": "string",
                    "internalType": "string"
                },
                {
                    "name": "start",
                    "type": "uint256",
                    "internalType": "uint256"
                },
                {
                    "name": "end",
                    "type": "uint256",
                    "internalType": "uint256"
                },
                {
                    "name": "open",
                    "type": "bool",
                    "internalType": "bool"
                }
            ],
            "stateMutability": "view"
        },
        {
            "type": "function",
            "name": "closeClaimPeriod",
            "inputs": [
                {
                    "name": "claimPeriodId",
                    "type": "uint256",
                    "internalType": "uint256"
                }
            ],
            "outputs": [],
            "stateMutability": "nonpayable"
        },
        {
            "type": "function",
            "name": "creators",
            "inputs": [
                {
                    "name": "",
                    "type": "string",
                    "internalType": "string"
                }
            ],
            "outputs": [
                {
                    "name": "owner",
                    "type": "address",
                    "internalType": "address"
                },
                {
                    "name": "channelId",
                    "type": "string",
                    "internalType": "string"
                },
                {
                    "name": "token",
                    "type": "address",
                    "internalType": "contract IERC20"
                },
                {
                    "name": "registered",
                    "type": "bool",
                    "internalType": "bool"
                }
            ],
            "stateMutability": "view"
        },
        {
            "type": "function",
            "name": "getClaimPeriods",
            "inputs": [
                {
                    "name": "channelId",
                    "type": "string",
                    "internalType": "string"
                }
            ],
            "outputs": [
                {
                    "name": "",
                    "type": "uint256[]",
                    "internalType": "uint256[]"
                }
            ],
            "stateMutability": "view"
        },
        {
            "type": "function",
            "name": "getSubscriberCount",
            "inputs": [
                {
                    "name": "claimPeriodId",
                    "type": "uint256",
                    "internalType": "uint256"
                }
            ],
            "outputs": [
                {
                    "name": "",
                    "type": "uint256",
                    "internalType": "uint256"
                }
            ],
            "stateMutability": "view"
        },
        {
            "type": "function",
            "name": "getSubscribers",
            "inputs": [
                {
                    "name": "claimPeriodId",
                    "type": "uint256",
                    "internalType": "uint256"
                }
            ],
            "outputs": [
                {
                    "name": "",
                    "type": "address[]",
                    "internalType": "address[]"
                }
            ],
            "stateMutability": "view"
        },
        {
            "type": "function",
            "name": "hasRegistered",
            "inputs": [
                {
                    "name": "",
                    "type": "uint256",
                    "internalType": "uint256"
                },
                {
                    "name": "",
                    "type": "address",
                    "internalType": "address"
                }
            ],
            "outputs": [
                {
                    "name": "",
                    "type": "bool",
                    "internalType": "bool"
                }
            ],
            "stateMutability": "view"
        },
        {
            "type": "function",
            "name": "nextClaimPeriodId",
            "inputs": [],
            "outputs": [
                {
                    "name": "",
                    "type": "uint256",
                    "internalType": "uint256"
                }
            ],
            "stateMutability": "view"
        },
        {
            "type": "function",
            "name": "openClaimPeriod",
            "inputs": [
                {
                    "name": "channelId",
                    "type": "string",
                    "internalType": "string"
                },
                {
                    "name": "start",
                    "type": "uint256",
                    "internalType": "uint256"
                },
                {
                    "name": "end",
                    "type": "uint256",
                    "internalType": "uint256"
                }
            ],
            "outputs": [
                {
                    "name": "",
                    "type": "uint256",
                    "internalType": "uint256"
                }
            ],
            "stateMutability": "nonpayable"
        },
        {
            "type": "function",
            "name": "registerAsSubscriber",
            "inputs": [
                {
                    "name": "claimPeriodId",
                    "type": "uint256",
                    "internalType": "uint256"
                },
                {
                    "name": "proof",
                    "type": "tuple",
                    "internalType": "struct Proof",
                    "components": [
                        {
                            "name": "claimInfo",
                            "type": "tuple",
                            "internalType": "struct CompleteClaimData",
                            "components": [
                                {
                                    "name": "identifier",
                                    "type": "bytes32",
                                    "internalType": "bytes32"
                                },
                                {
                                    "name": "owner",
                                    "type": "address",
                                    "internalType": "address"
                                },
                                {
                                    "name": "timestampS",
                                    "type": "uint32",
                                    "internalType": "uint32"
                                },
                                {
                                    "name": "epoch",
                                    "type": "uint32",
                                    "internalType": "uint32"
                                }
                            ]
                        },
                        {
                            "name": "signedClaim",
                            "type": "tuple",
                            "internalType": "struct SignedClaim",
                            "components": [
                                {
                                    "name": "claim",
                                    "type": "tuple",
                                    "internalType": "struct CompleteClaimData",
                                    "components": [
                                        {
                                            "name": "identifier",
                                            "type": "bytes32",
                                            "internalType": "bytes32"
                                        },
                                        {
                                            "name": "owner",
                                            "type": "address",
                                            "internalType": "address"
                                        },
                                        {
                                            "name": "timestampS",
                                            "type": "uint32",
                                            "internalType": "uint32"
                                        },
                                        {
                                            "name": "epoch",
                                            "type": "uint32",
                                            "internalType": "uint32"
                                        }
                                    ]
                                },
                                {
                                    "name": "signatures",
                                    "type": "bytes[]",
                                    "internalType": "bytes[]"
                                }
                            ]
                        }
                    ]
                }
            ],
            "outputs": [],
            "stateMutability": "nonpayable"
        },
        {
            "type": "function",
            "name": "registerCreator",
            "inputs": [
                {
                    "name": "channelId",
                    "type": "string",
                    "internalType": "string"
                },
                {
                    "name": "token",
                    "type": "address",
                    "internalType": "address"
                },
                {
                    "name": "proof",
                    "type": "tuple",
                    "internalType": "struct Proof",
                    "components": [
                        {
                            "name": "claimInfo",
                            "type": "tuple",
                            "internalType": "struct CompleteClaimData",
                            "components": [
                                {
                                    "name": "identifier",
                                    "type": "bytes32",
                                    "internalType": "bytes32"
                                },
                                {
                                    "name": "owner",
                                    "type": "address",
                                    "internalType": "address"
                                },
                                {
                                    "name": "timestampS",
                                    "type": "uint32",
                                    "internalType": "uint32"
                                },
                                {
                                    "name": "epoch",
                                    "type": "uint32",
                                    "internalType": "uint32"
                                }
                            ]
                        },
                        {
                            "name": "signedClaim",
                            "type": "tuple",
                            "internalType": "struct SignedClaim",
                            "components": [
                                {
                                    "name": "claim",
                                    "type": "tuple",
                                    "internalType": "struct CompleteClaimData",
                                    "components": [
                                        {
                                            "name": "identifier",
                                            "type": "bytes32",
                                            "internalType": "bytes32"
                                        },
                                        {
                                            "name": "owner",
                                            "type": "address",
                                            "internalType": "address"
                                        },
                                        {
                                            "name": "timestampS",
                                            "type": "uint32",
                                            "internalType": "uint32"
                                        },
                                        {
                                            "name": "epoch",
                                            "type": "uint32",
                                            "internalType": "uint32"
                                        }
                                    ]
                                },
                                {
                                    "name": "signatures",
                                    "type": "bytes[]",
                                    "internalType": "bytes[]"
                                }
                            ]
                        }
                    ]
                }
            ],
            "outputs": [],
            "stateMutability": "nonpayable"
        },
        {
            "type": "function",
            "name": "verifier",
            "inputs": [],
            "outputs": [
                {
                    "name": "",
                    "type": "address",
                    "internalType": "contract IReclaimVerifier"
                }
            ],
            "stateMutability": "view"
        },
        {
            "type": "event",
            "name": "AirdropExecuted",
            "inputs": [
                {
                    "name": "claimPeriodId",
                    "type": "uint256",
                    "indexed": false,
                    "internalType": "uint256"
                },
                {
                    "name": "count",
                    "type": "uint256",
                    "indexed": false,
                    "internalType": "uint256"
                },
                {
                    "name": "amountPerUser",
                    "type": "uint256",
                    "indexed": false,
                    "internalType": "uint256"
                }
            ],
            "anonymous": false
        },
        {
            "type": "event",
            "name": "ClaimPeriodClosed",
            "inputs": [
                {
                    "name": "claimPeriodId",
                    "type": "uint256",
                    "indexed": false,
                    "internalType": "uint256"
                }
            ],
            "anonymous": false
        },
        {
            "type": "event",
            "name": "ClaimPeriodOpened",
            "inputs": [
                {
                    "name": "channelId",
                    "type": "string",
                    "indexed": false,
                    "internalType": "string"
                },
                {
                    "name": "claimPeriodId",
                    "type": "uint256",
                    "indexed": false,
                    "internalType": "uint256"
                },
                {
                    "name": "start",
                    "type": "uint256",
                    "indexed": false,
                    "internalType": "uint256"
                },
                {
                    "name": "end",
                    "type": "uint256",
                    "indexed": false,
                    "internalType": "uint256"
                }
            ],
            "anonymous": false
        },
        {
            "type": "event",
            "name": "CreatorRegistered",
            "inputs": [
                {
                    "name": "owner",
                    "type": "address",
                    "indexed": true,
                    "internalType": "address"
                },
                {
                    "name": "channelId",
                    "type": "string",
                    "indexed": false,
                    "internalType": "string"
                },
                {
                    "name": "token",
                    "type": "address",
                    "indexed": false,
                    "internalType": "address"
                }
            ],
            "anonymous": false
        },
        {
            "type": "event",
            "name": "SubscriberRegistered",
            "inputs": [
                {
                    "name": "claimPeriodId",
                    "type": "uint256",
                    "indexed": false,
                    "internalType": "uint256"
                },
                {
                    "name": "subscriber",
                    "type": "address",
                    "indexed": false,
                    "internalType": "address"
                }
            ],
            "anonymous": false
        }
    ],
    "bytecode": {
        "object": "0x608060405234801561000f575f80fd5b50604051611a8f380380611a8f83398101604081905261002e91610052565b5f80546001600160a01b0319166001600160a01b039290921691909117905561007f565b5f60208284031215610062575f80fd5b81516001600160a01b0381168114610078575f80fd5b9392505050565b611a038061008c5f395ff3fe608060405234801561000f575f80fd5b50600436106100e5575f3560e01c80636f243a9c116100885780639b537d1f116100635780639b537d1f146101e6578063a3539ed414610208578063a7016b7b1461022b578063ef15914a1461024b575f80fd5b80636f243a9c146101ad5780639016bab2146101c05780639947188b146101d3575f80fd5b80633b605815116100c35780633b6058151461014e5780633cb9d3a81461016e5780633e969986146101775780634864909d1461018a575f80fd5b80630878d85f146100e95780630a23a5dd1461010f5780632b7ac3f314610124575b5f80fd5b6100fc6100f73660046110b3565b610288565b6040519081526020015b60405180910390f35b61012261011d36600461110b565b6102c4565b005b5f54610136906001600160a01b031681565b6040516001600160a01b039091168152602001610106565b61016161015c36600461114f565b61060e565b6040516101069190611166565b6100fc60015481565b6100fc6101853660046111f7565b61067a565b61019d610198366004611244565b610828565b60405161010694939291906112c1565b6101226101bb3660046112f9565b6108fc565b6101226101ce36600461114f565b610b5a565b6101226101e1366004611334565b610c46565b6100fc6101f436600461114f565b5f9081526003602052604090206004015490565b61021b61021636600461114f565b610ef3565b60405161010694939291906113ac565b61023e6102393660046113dc565b610fa5565b604051610106919061141b565b610278610259366004611452565b600460209081525f928352604080842090915290825290205460ff1681565b6040519015158152602001610106565b815160208184018101805160058252928201918501919091209190528054829081106102b2575f80fd5b905f5260205f20015f91509150505481565b5f828152600360205260409020600181015442108015906102e9575080600201544211155b61034b5760405162461bcd60e51b815260206004820152602860248201527f726567697374726174696f6e206f7574736964652061637469766520636c61696044820152671b481c195c9a5bd960c21b60648201526084015b60405180910390fd5b600381015460ff166103955760405162461bcd60e51b815260206004820152601360248201527218db185a5b481c195c9a5bd90818db1bdcd959606a1b6044820152606401610342565b5f83815260046020908152604080832033845290915290205460ff16156103f35760405162461bcd60e51b8152602060048201526012602482015271185b1c9958591e481c9959da5cdd195c995960721b6044820152606401610342565b5f54604051637b27710960e11b81526001600160a01b039091169063f64ee21290610422908590600401611507565b602060405180830381865afa15801561043d573d5f803e3d5ffd5b505050506040513d601f19601f820116820180604052508101906104619190611627565b61049d5760405162461bcd60e51b815260206004820152600d60248201526c34b73b30b634b210383937b7b360991b6044820152606401610342565b336104ae604084016020850161164d565b6001600160a01b0316146104f85760405162461bcd60e51b81526020600482015260116024820152703bb937b73390383937b7b31037bbb732b960791b6044820152606401610342565b600181015461050d6060840160408501611666565b63ffffffff161015801561053a575060028101546105316060840160408501611666565b63ffffffff1611155b6105865760405162461bcd60e51b815260206004820152601860248201527f74696d657374616d70206f75747369646520706572696f6400000000000000006044820152606401610342565b5f83815260046020818152604080842033808652908352818520805460ff191660019081179091559386018054948501815585529382902090920180546001600160a01b031916841790558151868152908101929092527faaf56527c1117505d8687c99f778d77376ad69b1b50df7a9e456c1059cd9804c91015b60405180910390a1505050565b5f8181526003602090815260409182902060040180548351818402810184019094528084526060939283018282801561066e57602002820191905f5260205f20905b81546001600160a01b03168152600190910190602001808311610650575b50505050509050919050565b5f806002868660405161068e92919061167f565b908152604051908190036020019020600281015490915060ff600160a01b909104166106f55760405162461bcd60e51b815260206004820152601660248201527518dc99585d1bdc881b9bdd081c9959da5cdd195c995960521b6044820152606401610342565b80546001600160a01b0316331461071e5760405162461bcd60e51b81526004016103429061168e565b82841061075a5760405162461bcd60e51b815260206004820152600a602482015269189859081c195c9a5bd960b21b6044820152606401610342565b600180545f918261076a836116b1565b909155505f8181526003602052604090209091508061078a888a83611755565b5060018082018790556002820186905560038201805460ff191690911790556040516005906107bc908a908a9061167f565b908152604051908190036020908101822080546001810182555f918252919020018390557f41cb35af602d4fc20dffc959e4e8d7a9f98f6a08dea92dd0b0eb9fbf300a35f890610815908a908a9086908b908b90611811565b60405180910390a1509695505050505050565b8051602081830181018051600282529282019190930120915280546001820180546001600160a01b03909216929161085f906116d5565b80601f016020809104026020016040519081016040528092919081815260200182805461088b906116d5565b80156108d65780601f106108ad576101008083540402835291602001916108d6565b820191905f5260205f20905b8154815290600101906020018083116108b957829003601f168201915b505050600290930154919250506001600160a01b0381169060ff600160a01b9091041684565b5f8281526003602081905260409091209081015460ff16156109605760405162461bcd60e51b815260206004820152601760248201527f636c61696d20706572696f64207374696c6c206f70656e0000000000000000006044820152606401610342565b5f6002825f016040516109739190611841565b90815260405190819003602001902080549091506001600160a01b031633146109ae5760405162461bcd60e51b81526004016103429061168e565b6004820154806109f15760405162461bcd60e51b815260206004820152600e60248201526d6e6f20737562736372696265727360901b6044820152606401610342565b5f6109fc82866118b3565b90505f5b82811015610b1057600284015484546004870180545f936001600160a01b03908116936323b872dd9391169186908110610a3c57610a3c6118d2565b5f9182526020909120015460405160e084901b6001600160e01b03191681526001600160a01b03928316600482015291166024820152604481018690526064016020604051808303815f875af1158015610a98573d5f803e3d5ffd5b505050506040513d601f19601f82011682018060405250810190610abc9190611627565b905080610afd5760405162461bcd60e51b815260206004820152600f60248201526e1d1c985b9cd9995c8819985a5b1959608a1b6044820152606401610342565b5080610b08816116b1565b915050610a00565b5060408051878152602081018490529081018290527f26f116315511836baaeeec2c9f0d3c114715e197d820abf9cbdd99a9619134f59060600160405180910390a1505050505050565b5f818152600360205260408082209051909190600290610b7b908490611841565b90815260405190819003602001902080549091506001600160a01b03163314610bb65760405162461bcd60e51b81526004016103429061168e565b600382015460ff16610c0a5760405162461bcd60e51b815260206004820152601b60248201527f636c61696d20706572696f6420616c726561647920636c6f73656400000000006044820152606401610342565b60038201805460ff191690556040518381527f27785514f6a2819dfa873afc0787b1b0633a2df4163b3a00cb2ffa6753d8763490602001610601565b60028484604051610c5892919061167f565b9081526040519081900360200190206002015460ff600160a01b9091041615610cb85760405162461bcd60e51b8152602060048201526012602482015271185b1c9958591e481c9959da5cdd195c995960721b6044820152606401610342565b5f54604051637b27710960e11b81526001600160a01b039091169063f64ee21290610ce7908490600401611507565b602060405180830381865afa158015610d02573d5f803e3d5ffd5b505050506040513d601f19601f82011682018060405250810190610d269190611627565b610d625760405162461bcd60e51b815260206004820152600d60248201526c34b73b30b634b210383937b7b360991b6044820152606401610342565b33610d73604083016020840161164d565b6001600160a01b031614610dbb5760405162461bcd60e51b815260206004820152600f60248201526e3737ba10383937b7b31037bbb732b960891b6044820152606401610342565b6040518060800160405280336001600160a01b0316815260200185858080601f0160208091040260200160405190810160405280939291908181526020018383808284375f920191909152505050908252506001600160a01b0384166020820152600160409182015251600290610e35908790879061167f565b90815260405160209181900382019020825181546001600160a01b0319166001600160a01b03909116178155908201516001820190610e7490826118e6565b50604082810151600290920180546060909401511515600160a01b026001600160a81b03199094166001600160a01b03909316929092179290921790555133907fac775130061cfcb68893f2b9c6e3897cb90570cafc4de9e928cfdc6b83b45d8c90610ee5908790879087906119a2565b60405180910390a250505050565b60036020525f9081526040902080548190610f0d906116d5565b80601f0160208091040260200160405190810160405280929190818152602001828054610f39906116d5565b8015610f845780601f10610f5b57610100808354040283529160200191610f84565b820191905f5260205f20905b815481529060010190602001808311610f6757829003601f168201915b50505050600183015460028401546003909401549293909290915060ff1684565b606060058383604051610fb992919061167f565b908152604080519182900360209081018320805480830285018301909352828452919083018282801561100957602002820191905f5260205f20905b815481526020019060010190808311610ff5575b5050505050905092915050565b634e487b7160e01b5f52604160045260245ffd5b5f82601f830112611039575f80fd5b813567ffffffffffffffff8082111561105457611054611016565b604051601f8301601f19908116603f0116810190828211818310171561107c5761107c611016565b81604052838152866020858801011115611094575f80fd5b836020870160208301375f602085830101528094505050505092915050565b5f80604083850312156110c4575f80fd5b823567ffffffffffffffff8111156110da575f80fd5b6110e68582860161102a565b95602094909401359450505050565b5f60a08284031215611105575f80fd5b50919050565b5f806040838503121561111c575f80fd5b82359150602083013567ffffffffffffffff811115611139575f80fd5b611145858286016110f5565b9150509250929050565b5f6020828403121561115f575f80fd5b5035919050565b602080825282518282018190525f9190848201906040850190845b818110156111a65783516001600160a01b031683529284019291840191600101611181565b50909695505050505050565b5f8083601f8401126111c2575f80fd5b50813567ffffffffffffffff8111156111d9575f80fd5b6020830191508360208285010111156111f0575f80fd5b9250929050565b5f805f806060858703121561120a575f80fd5b843567ffffffffffffffff811115611220575f80fd5b61122c878288016111b2565b90989097506020870135966040013595509350505050565b5f60208284031215611254575f80fd5b813567ffffffffffffffff81111561126a575f80fd5b6112768482850161102a565b949350505050565b5f81518084525f5b818110156112a257602081850181015186830182015201611286565b505f602082860101526020601f19601f83011685010191505092915050565b5f60018060a01b038087168352608060208401526112e2608084018761127e565b941660408301525090151560609091015292915050565b5f806040838503121561130a575f80fd5b50508035926020909101359150565b80356001600160a01b038116811461132f575f80fd5b919050565b5f805f8060608587031215611347575f80fd5b843567ffffffffffffffff8082111561135e575f80fd5b61136a888389016111b2565b909650945084915061137e60208801611319565b93506040870135915080821115611393575f80fd5b506113a0878288016110f5565b91505092959194509250565b608081525f6113be608083018761127e565b60208301959095525060408101929092521515606090910152919050565b5f80602083850312156113ed575f80fd5b823567ffffffffffffffff811115611403575f80fd5b61140f858286016111b2565b90969095509350505050565b602080825282518282018190525f9190848201906040850190845b818110156111a657835183529284019291840191600101611436565b5f8060408385031215611463575f80fd5b8235915061147360208401611319565b90509250929050565b803563ffffffff8116811461132f575f80fd5b803582526001600160a01b036114a760208301611319565b1660208301526114b96040820161147c565b63ffffffff8082166040850152806114d36060850161147c565b16606085015250505050565b81835281816020850137505f828201602090810191909152601f909101601f19169091010190565b5f60208083526115198184018561148f565b6080840135609e1985360301811261152f575f80fd5b60a0848101528401610160840161154960c086018361148f565b6080820135601e1983360301811261155f575f80fd5b90910190813583830167ffffffffffffffff8083111561157d575f80fd5b8260051b80360383131561158f575f80fd5b60a06101408a0152938390526101809388018401935f908901603e1936889003015b85831015611617578a870361017f1901825284358181126115d0575f80fd5b880160408101908a0135858111156115e6575f80fd5b8036038213156115f4575f80fd5b6115ff8982846114df565b985050509388019360019290920191908801906115b1565b50949a9950505050505050505050565b5f60208284031215611637575f80fd5b81518015158114611646575f80fd5b9392505050565b5f6020828403121561165d575f80fd5b61164682611319565b5f60208284031215611676575f80fd5b6116468261147c565b818382375f9101908152919050565b6020808252600990820152683737ba1037bbb732b960b91b604082015260600190565b5f600182016116ce57634e487b7160e01b5f52601160045260245ffd5b5060010190565b600181811c908216806116e957607f821691505b60208210810361110557634e487b7160e01b5f52602260045260245ffd5b601f821115611750575f81815260208120601f850160051c8101602086101561172d5750805b601f850160051c820191505b8181101561174c57828155600101611739565b5050505b505050565b67ffffffffffffffff83111561176d5761176d611016565b6117818361177b83546116d5565b83611707565b5f601f8411600181146117b2575f851561179b5750838201355b5f19600387901b1c1916600186901b17835561180a565b5f83815260209020601f19861690835b828110156117e257868501358255602094850194600190920191016117c2565b50868210156117fe575f1960f88860031b161c19848701351681555b505060018560011b0183555b5050505050565b608081525f6118246080830187896114df565b602083019590955250604081019290925260609091015292915050565b5f80835461184e816116d5565b60018281168015611866576001811461187b576118a7565b60ff19841687528215158302870194506118a7565b875f526020805f205f5b8581101561189e5781548a820152908401908201611885565b50505082870194505b50929695505050505050565b5f826118cd57634e487b7160e01b5f52601260045260245ffd5b500490565b634e487b7160e01b5f52603260045260245ffd5b815167ffffffffffffffff81111561190057611900611016565b6119148161190e84546116d5565b84611707565b602080601f831160018114611947575f84156119305750858301515b5f19600386901b1c1916600185901b17855561174c565b5f85815260208120601f198616915b8281101561197557888601518255948401946001909101908401611956565b508582101561199257878501515f19600388901b60f8161c191681555b5050505050600190811b01905550565b604081525f6119b56040830185876114df565b905060018060a01b038316602083015294935050505056fea2646970667358221220ae08632af7fae2fedaf4eabf613dc94b5c22f193956529dfce7f22b6b4bd8ed964736f6c63430008140033",
        "linkReferences": {}
    },
    "methodIdentifiers": {
        "airdrop(uint256,uint256)": "6f243a9c",
        "channelClaimPeriods(string,uint256)": "0878d85f",
        "claimPeriods(uint256)": "a3539ed4",
        "closeClaimPeriod(uint256)": "9016bab2",
        "creators(string)": "4864909d",
        "getClaimPeriods(string)": "a7016b7b",
        "getSubscriberCount(uint256)": "9b537d1f",
        "getSubscribers(uint256)": "3b605815",
        "hasRegistered(uint256,address)": "ef15914a",
        "nextClaimPeriodId()": "3cb9d3a8",
        "openClaimPeriod(string,uint256,uint256)": "3e969986",
        "registerAsSubscriber(uint256,((bytes32,address,uint32,uint32),((bytes32,address,uint32,uint32),bytes[])))": "0a23a5dd",
        "registerCreator(string,address,((bytes32,address,uint32,uint32),((bytes32,address,uint32,uint32),bytes[])))": "9947188b",
        "verifier()": "2b7ac3f3"
    },
    "id": 0
}